:100000000C9404010C9450110C9481110C94B211B5
:100010000C94E3110C9414120C9445120C94761267
:100020000C94A7120C9431010C9431010C94310101
:100030000C9431010C9431010C9431010C94310178
:100040000C9431010C9431010C9431010C94310168
:100050000C9431010C9431010C9431010C94E71C87
:100060000C9431010C94C5070C94F1080C943101E7
:100070000C9431010C9431010C9431010C94310138
:100080000C9431010C9431010C9431010C94310128
:100090000C94FE070C943E090C9431010C94310130
:1000A0000C9431010C9431010C9431010C94310108
:1000B0000C9431010C9431010C9431010C943101F8
:1000C0000C9431010C9431010C9431010C943708DB
:1000D0000C948B090C9431010C9470080C94D80981
:1000E0000C94310100002100240027002A002D007B
:1000F0003000330001010000040107010A01000083
:100100002200250028002B002E00310034000201BF
:100110000000050108010B0100002000230026005B
:1001200029002C002F00320000010000030106010D
:10013000090105050505070508080808020202026D
:100140000A0A080804040404010101010101010173
:100150000303030303030303040707070C0C0C0C3E
:100160000C0C0C0C02020202060606060606060627
:100170000B0B0B0B0B0B0B0B0102102020080810B4
:100180002040102040800201020108040201010207
:1001900004081020408080402010080402018004E0
:1001A000020180402010080402010804020101023B
:1001B0000408102040800102040810204080000044
:1001C000090A02080B0C0D070603040100000000D9
:1001D000000000000000000000000000000000001F
:1001E0000000000000000000000011100F000000DF
:1001F00000000000000000000000000000000000FF
:10020000000000009006370C11241FBECFEFD1E292
:10021000DEBFCDBF00E00CBF13E0A0E0B2E0ECE831
:10022000FBE800E00BBF02C007900D92AA39B107AE
:10023000D9F71BBE17E0AAE9B3E001C01D92A337AE
:10024000B107E1F712E0C8E0D2E004C02297FE0156
:100250000E946E45C430D107C9F70E944B020C942E
:10026000C4450C940000AF92BF92CF92DF92EF9200
:10027000FF920F931F93A0906A07B0906B07C090F6
:100280006C07D0906D07C601B50120E030E040E872
:100290005FEB0E943343882331F1E0905E07F090DA
:1002A0005F070091600710916107C601B501A801C1
:1002B00097010E94CE425B016C01C801B70120E0AA
:1002C00030E040E054E30E9486449B01AC01C6014B
:1002D000B5010E948244181634F080E092E09093B9
:1002E00049078093480780916E07882331F080E0AA
:1002F00092E090934907809348076091620770915C
:10030000630780916407909165076F5F7F4F8F4F00
:100310009F4F609362077093630780936407909385
:1003200065070E94D043209166073091670740918E
:100330006807509169070E94864460935E07709336
:100340005F0780936007909361071F910F91FF9063
:10035000EF90DF90CF90BF90AF9008950895E8E4BC
:10036000F7E087E2DF011D928A95E9F780E090E0EF
:10037000A0E8BFEB80936A0790936B07A0936C078C
:10038000B0936D078DEC9CECACE4BEE38093660704
:1003900090936707A0936807B09369078AE697E58B
:1003A000A1EFBBEF80934C0790934D07A0934E07AE
:1003B000B0934F078EEB93E0ACEBB1EE8093500718
:1003C00090935107A0935207B09353078BEC96E894
:1003D000ABEBB2EC8093540790935507A09356076C
:1003E000B09357078DEE92EFA3EABDE380935807D1
:1003F00090935907A0935A07B0935B078EEA93E056
:1004000090934B0780934A078CEA93E09093AF0355
:100410008093AE038DED92E09093AD038093AC0397
:100420007496F093B303E093B2037097F093B10323
:10043000E093B0037296F093B503E093B403EAE956
:10044000F3E082E1DF011D928A95E9F7F0935D0701
:10045000E0935C0780E190E090939B0380939A0384
:1004600086E192E090939D0380939C0389EB92E058
:1004700090939F0380939E0389ED92E09093A30352
:100480008093A203089566EE72E0CB016F5F7F4F09
:100490000E94F60508955F926F927F928F929F92CD
:1004A000AF92BF92CF92DF92EF92FF920F931F9382
:1004B000DF93CF930F92CDB7DEB70E94C61D80E0C9
:1004C00090E060E070E00E9421280E94AF0100915E
:1004D000140210911502C80182960E941F2881E023
:1004E00090E00E9432281982F8018281938161E0B4
:1004F00070E0AE014F5F5F4F0E94512889818823D1
:1005000019F081E0F80186A30E942028CC24DD2484
:1005100076013E010894611C711C5524539432C02D
:100520000E943D1D4B015C01DC01CB018C199D0932
:10053000AE09BF0980549D40A340B04018F1198214
:10054000F8018281938161E070E0A3010E943E285E
:100550008981882311F0F80156A20E94430281E0AC
:1005600090E00E943528F80146895789608D718D89
:1005700080E090E00E943B280E9433010E943828CE
:1005800075016401F80180819181892B19F486A19C
:10059000882331F281E090E00E942F2868EE73E01A
:1005A00080E090E00E94631D0E94AE0180E090E038
:1005B0000F90CF91DF911F910F91FF90EF90DF90FF
:1005C000CF90BF90AF909F908F907F906F905F90F3
:1005D000089508950895FC01E081E23089F0E33048
:1005E00018F4E13009F505C0E33089F0E430E1F4B6
:1005F00015C0862F90E0909389008093880008951D
:10060000862F90E090939D0080939C000895862F04
:1006100090E09093A9008093A8000895862F90E021
:10062000909399008093980008950F931F938C01E5
:1006300080E090E0F8012081318140E050E00E94AC
:10064000E9449B01AC0160E077E883E993E00E9414
:100650001B45F80123833483458356831782108614
:10066000118612861F910F910895E0E8F0E09081C5
:1006700091689083877088608093810010928900D0
:10068000109288008BE061E00E943A1F0895E0E933
:10069000F0E09081996090838770886080939100EA
:1006A00010929D0010929C0083E061E00E943A1F2E
:1006B0000895E0EAF0E09081916890838770886007
:1006C0008093A1001092A9001092A80086E061E03A
:1006D0000E943A1F0895E0E9F0E0908191689083CC
:1006E0008770886080939100109299001092980012
:1006F00085E061E00E943A1F0895CF93DF938CE07C
:1007000060E00E94D41F88E060E00E94D41FC7E030
:10071000D0E084E060E00E94D41F8091BD0390E0AF
:100720000C2E02C0959587950A94E2F780FF03C0CE
:1007300088E061E002C088E060E00E94D41F84E0AD
:1007400061E00E94D41F21978FEFCF3FD80709F7B0
:100750008CE061E00E94D41FDF91CF9108950F9348
:100760001F93CF93DF93EC01142F8A81813029F4FA
:1007700004E042E058E070E108C0823011F080E00F
:10078000F2C000E241E050E870E4113041F49B8592
:10079000892F86958695869580FF10C009C01230F6
:1007A000A1F49B85892F86958695869580FD06C048
:1007B000613011F4985F05C0985003C0613019F49E
:1007C000905F9B8752C09051FCCF133041F48B85D2
:1007D000613011F4885F01C088508B8746C01430A7
:1007E00009F043C08B85613011F48F5F01C08150E7
:1007F0008B87AB85AF73AB87A03148F4B0E0E8EFEF
:10080000F2E0EA1BFB0B2081A851BD4F19C08A2FD3
:100810008051803148F48A2F90E0FC01E852FD4F6E
:100820002081E8E0F3E01DC08A2F8052803150F42F
:10083000B0E0E8E1F3E0EA1BFB0B2081A853BD4FD9
:10084000AC9115C08A2F8053803118F0A0E020E0D1
:100850000EC08A2F90E0FC01E854FD4F2081E8E2B1
:10086000F3E0E81BF90BA08102C0AFEF2FEF3B854F
:100870003F733B878A81813069F4822F90E09093A7
:100880008900809388008A2F90E090939D00809348
:100890009C000EC0823061F4822F90E09093A900FA
:1008A0008093A8008A2F90E09093990080939800FD
:1008B000242F202B672F652B962F922B90958091BC
:1008C000BD0398239093BD03143019F5303118F40B
:1008D000922B9093BD03832F8051803130F4452BB0
:1008E0008091BD03842B8093BD03832F8052803180
:1008F00030F4572B8091BD03852B8093BD0330537B
:10090000303160F5702B8091BD03872B8093BD0340
:1009100025C0832F8695869586958330B1F08430E7
:1009200028F4813071F0823070F409C0853081F094
:10093000853060F0863079F0873081F40BC0902BE1
:100940000BC0922B09C0942B07C0542B952B04C0CD
:10095000962B02C0702B972B9093BD038CEB93E0EA
:100960000E947D038B85DF91CF911F910F91089598
:100970005F926F927F928F929F92AF92BF92CF922F
:10098000DF92EF92FF920F931F93CF93DF93EC01CF
:100990006B01542EA22EEB80FC800D811E8123E082
:1009A000A216D1F416950795F794E794C801B701FC
:1009B00028EE33E040E050E00E941B4539014A0137
:1009C000C801B70128EE33E040E050E00E941B452B
:1009D0007B018C01BB2440C084E0A81639F794E069
:1009E00016950795F794E7949A95D1F784E0CC0C87
:1009F000DD1C8A95E1F7DACFCE01652D4A2D0E94E4
:100A0000AF03B82EB301C4010E94631D8F81988586
:100A1000A985BA858E0D9F1DA01FB11F8F83988752
:100A2000A987BA87885E9340A040B04090F061E00B
:100A300070E080E090E00E94631D8F819885A98519
:100A4000BA85885E9340A040B0408F839887A9877D
:100A5000BA870894C108D108C114D10469F684E0AA
:100A6000A81699F52DC0CE01652D44E00E94AF0374
:100A7000B82EB301C4010E94631D8F819885A9859A
:100A8000BA858E0D9F1DA01FB11F8F839887A987E0
:100A9000BA87885E9340A040B04090F061E070E07B
:100AA00080E090E00E94631D8F819885A985BA85BA
:100AB000885E9340A040B0408F839887A987BA870B
:100AC000BB2019F080E1B81671F6DF91CF911F912C
:100AD0000F91FF90EF90DF90CF90BF90AF909F90DD
:100AE0008F907F906F905F900895FC01828181309C
:100AF00051F48091BD03817E8093BD038CEB93E024
:100B00000E947D030895823049F48091BD038E7167
:100B10008093BD038CEB93E00E947D030895FC015C
:100B2000E081E23061F0E33020F4E13009F05DC0B3
:100B300009C0E33051F0E43009F057C009C041E08A
:100B400054E008C042E053E005C045E057E002C071
:100B500040E056E06230C1F0643079F1613009F074
:100B600044C081E090E09C0102C0220F331F5A95DF
:100B7000E2F7209502C0880F991F4A95E2F740914D
:100B8000BD03482B242312C081E090E09C0102C0E9
:100B9000220F331F4A95E2F720954091BD0324238D
:100BA00002C0880F991F5A95E2F7282B2093BD03A6
:100BB0008CEB93E00E947D03089581E090E09C011E
:100BC00002C0220F331F4A95E2F702C0880F991F17
:100BD0005A95E2F7822B80952091BD03282320931C
:100BE000BD038CEB93E00E947D030895DC01FB01C3
:100BF00080812091BA03223081F0233018F4213013
:100C0000E9F405C0233079F02430C1F412C090E03B
:100C1000909389008093880011C090E090939D008C
:100C200080939C000BC090E09093A9008093A80053
:100C300005C090E090939900809398008AEB93E030
:100C40006C910E948F0508950F931F938C018CE087
:100C500061E00E943A1F87E061E00E943A1F88E04D
:100C600061E00E943A1F84E061E00E943A1F109206
:100C7000BD03C8010E947D0387E060E00E94D41F8D
:100C80001F910F9108950F931F93FC01162F042FAE
:100C9000608341838CEB93E00E9424061230B9F00C
:100CA000133018F41130C9F505C01330E9F01430D1
:100CB000A1F527C08091BD03837F8093BD038CEB9A
:100CC00093E00E947D03802F0E94350326C080910F
:100CD000BD038D7E8093BD038CEB93E00E947D036A
:100CE000802F0E94470319C08091BD038F758093A8
:100CF000BD038CEB93E00E947D03802F0E9459037B
:100D00000CC08091BD038E7B8093BD038CEB93E080
:100D10000E947D03802F0E946B031F910F91089505
:100D20008AEB93E061E042E00E94430608950F934E
:100D30001F93FC01162F042F608341838CEB93E0FB
:100D40000E9424061230B9F0133018F41130C9F59E
:100D500005C01330E9F01430A1F527C08091BD0320
:100D6000837F8093BD038CEB93E00E947D03802FF3
:100D70000E94350326C08091BD038D7E8093BD0304
:100D80008CEB93E00E947D03802F0E94470319C0E3
:100D90008091BD038F758093BD038CEB93E00E941F
:100DA0007D03802F0E9459030CC08091BD038E7B70
:100DB0008093BD038CEB93E00E947D03802F0E9403
:100DC0006B031F910F910895DF92EF92FF920F93A3
:100DD0001F938C017B01D42E8CEB93E00E942406A0
:100DE000F801F182E082D2821386F1E0DF1651F53C
:100DF0008091BD03817E8093BD038CEB93E00E94C4
:100E00007D038BE061E00E943A1F83E061E00E9475
:100E10003A1F8BE061E00E94D41F83E061E00E94F2
:100E2000D41F81E00E94350381E00E9447038FEFC9
:100E300090E0909389008093880090939D00809328
:100E40009C002CC082E0D81649F58091BD038E71BC
:100E50008093BD038CEB93E00E947D0385E061E00D
:100E60000E943A1F86E061E00E943A1F85E061E03F
:100E70000E94D41F86E061E00E94D41F81E00E949E
:100E8000590381E00E946B038FEF90E09093A900DB
:100E90008093A80090939900809398001F910F91E0
:100EA000FF90EF90DF900895DF92EF92FF920F9303
:100EB0001F938C017B01D42E8CEB93E00E942406BF
:100EC000F801F182E082D2821386F1E0DF1651F55B
:100ED0008091BD03817E8093BD038CEB93E00E94E3
:100EE0007D038BE061E00E943A1F83E061E00E9495
:100EF0003A1F8BE061E00E94D41F83E061E00E9412
:100F0000D41F81E00E94350381E00E9447038FEFE8
:100F100090E0909389008093880090939D00809347
:100F20009C002CC082E0D81649F58091BD038E71DB
:100F30008093BD038CEB93E00E947D0385E061E02C
:100F40000E943A1F86E061E00E943A1F85E061E05E
:100F50000E94D41F86E061E00E94D41F81E00E94BD
:100F6000590381E00E946B038FEF90E09093A900FA
:100F70008093A80090939900809398001F910F91FF
:100F8000FF90EF90DF90089508951F920F920FB693
:100F90000F920BB60F9211242F933F934F938F9381
:100FA0009F93EF93FF934091C6002091FE033091F1
:100FB000FF032F5F3F4F2F7330708091000490919B
:100FC00001042817390759F0E091FE03F091FF035F
:100FD000E254FC4F40833093FF032093FE03FF91C4
:100FE000EF919F918F914F913F912F910F900BBE59
:100FF0000F900FBE0F901F90189508951F920F929B
:101000000FB60F920BB60F9211242F933F934F936D
:101010008F939F93EF93FF934091CE00209186048E
:10102000309187042F5F3F4F2F7330708091880479
:10103000909189042817390759F0E0918604F091BE
:101040008704EA5BFB4F4083309387042093860438
:10105000FF91EF919F918F914F913F912F910F9021
:101060000BBE0F900FBE0F901F90189508951F9202
:101070000F920FB60F920BB60F9211242F933F933E
:101080004F938F939F93EF93FF934091D6002091BE
:101090000E0530910F052F5F3F4F2F7330708091F9
:1010A0001005909111052817390759F0E0910E05A8
:1010B000F0910F05E253FB4F408330930F052093CF
:1010C0000E05FF91EF919F918F914F913F912F913D
:1010D0000F900BBE0F900FBE0F901F9018950895A4
:1010E0001F920F920FB60F920BB60F9211242F93EF
:1010F0003F934F938F939F93EF93FF9340913601CC
:1011000020919605309197052F5F3F4F2F733070D8
:1011100080919805909199052817390759F0E09129
:101120009605F0919705EA5AFA4F40833093970558
:1011300020939605FF91EF919F918F914F913F9151
:101140002F910F900BBE0F900FBE0F901F90189510
:10115000E091EA05F091EB05E05CFF4F8191919100
:1011600020813181821B930B8F739070892B11F03A
:101170000E94C407E0910906F0910A06E05CFF4F67
:101180008191919120813181821B930B8F7390709B
:10119000892B11F00E94FD07E0912806F0912906A5
:1011A000E05CFF4F8191919120813181821B930BF3
:1011B0008F739070892B11F00E943608E0914706DA
:1011C000F0914806E05CFF4F81919191208131813F
:1011D000821B930B8F739070892B11F00E946F0804
:1011E00008951F920F920FB60F920BB60F92112413
:1011F0002F933F934F935F936F937F938F939F931F
:10120000AF93BF93EF93FF93209142043091430437
:1012100080914404909145042817390731F4809156
:10122000C1008F7D8093C10016C0E0914404F0910D
:101230004504EE5FFB4F408180914404909145044A
:10124000019660E470E00E94084590934504809305
:1012500044044093C600FF91EF91BF91AF919F91DD
:101260008F917F916F915F914F913F912F910F904F
:101270000BBE0F900FBE0F901F9018951F920F92EC
:101280000FB60F920BB60F9211242F933F934F93EB
:101290005F936F937F938F939F93AF93BF93EF93DE
:1012A000FF932091CA043091CB048091CC0490919B
:1012B000CD042817390731F48091C9008F7D8093C0
:1012C000C90016C0E091CC04F091CD04E657FB4F65
:1012D00040818091CC049091CD04019660E470E04F
:1012E0000E9408459093CD048093CC044093CE0097
:1012F000FF91EF91BF91AF919F918F917F916F91EE
:101300005F914F913F912F910F900BBE0F900FBEA9
:101310000F901F9018951F920F920FB60F920BB659
:101320000F9211242F933F934F935F936F937F936B
:101330008F939F93AF93BF93EF93FF9320915205A9
:101340003091530580915405909155052817390720
:1013500031F48091D1008F7D8093D10016C0E0914F
:101360005405F0915505EE5EFA4F40818091540589
:1013700090915505019660E470E00E9408459093B5
:101380005505809354054093D600FF91EF91BF918E
:10139000AF919F918F917F916F915F914F913F910D
:1013A0002F910F900BBE0F900FBE0F901F901895AE
:1013B0001F920F920FB60F920BB60F9211242F931C
:1013C0003F934F935F936F937F938F939F93AF93CD
:1013D000BF93EF93FF932091DA053091DB05809165
:1013E000DC059091DD052817390731F48091310132
:1013F0008F7D8093310116C0E091DC05F091DD0511
:10140000E656FA4F40818091DC059091DD0501960A
:1014100060E470E00E9408459093DD058093DC0550
:1014200040933601FF91EF91BF91AF919F918F91C2
:101430007F916F915F914F913F912F910F900BBED4
:101440000F900FBE0F901F9018958F92AF92BF9282
:10145000CF92DF92EF92FF920F931F93DF93CF9380
:10146000CDB7DEB7FC011382128288EE93E0A0E0D4
:10147000B0E084839583A683B7838DEF92E0918358
:1014800080837587648757874687318B208B138BC2
:10149000028BF58AE48AD78AC68AB18EA08E828EA4
:1014A0008F85838F8889848F8989858F8A89868FA4
:1014B000CF91DF911F910F91FF90EF90DF90CF9030
:1014C000BF90AF908F9008958F92AF92BF92CF92BE
:1014D000DF92EF92FF920F931F93DF93CF93CDB7DD
:1014E000DEB7FC011382128288EE93E0A0E0B0E048
:1014F00084839583A683B7838DEF92E09183808365
:101500007587648757874687318B208B138B028BB7
:10151000F58AE48AD78AC68AB18EA08E828E8F859C
:10152000838F8889848F8989858F8A89868FCF91D7
:10153000DF911F910F91FF90EF90DF90CF90BF90C0
:10154000AF908F900895AF92BF92DF92EF92FF928B
:101550000F931F93CF93DF93EC017A018B01DD246E
:10156000403081EE580780E0680780E0780711F08E
:10157000DD24D39491E0A92EB12CEC89FD89DD20E6
:1015800069F0C5010E8C02C0880F991F0A94E2F71A
:10159000808360E079E08DE390E005C0108260E830
:1015A00074E88EE190E0A80197010E941B4521504C
:1015B000304040405040569547953795279580E1FB
:1015C0002030380720F0DD2011F0DD24D6CFE88967
:1015D000F9893083EA89FB892083EE89FF8940817C
:1015E00021E030E0C9010A8C02C0880F991F0A94DB
:1015F000E2F7482B4083EE89FF894081C9010B8CBB
:1016000002C0880F991F0A94E2F7482B4083EE89A5
:10161000FF894081C9010C8C02C0880F991F0A9470
:10162000E2F7482B4083EE89FF8980810D8C02C050
:10163000220F331F0A94E2F7209528232083DF919D
:10164000CF911F910F91FF90EF90DF90BF90AF90DF
:101650000895CF93DF93DC011E968D919C911F9787
:10166000EC01C05CDF4FFC01EE5BFF4F288139814C
:101670008081918128173907C9F75696ED91FC9121
:101680005797408121E030E0C9015A960C905A9753
:1016900002C0880F991F0A94E2F780958423808303
:1016A0005696ED91FC9157974081C9015B960C903D
:1016B0005B9702C0880F991F0A94E2F780958423F4
:1016C00080835696ED91FC9157974081C9015C96B5
:1016D0000C905C9702C0880F991F0A94E2F78095DE
:1016E000842380835696ED91FC91579780815D9677
:1016F0000C905D9702C0220F331F0A94E2F72095E9
:10170000282320831C96ED91FC911D97EE5BFF4FE3
:101710008081918192938293DF91CF910895DC0132
:101720001C96ED91FC911D97E05CFF4F219131914A
:1017300080819181281B390B2F733070C901089566
:10174000DC011C96ED91FC911D97E05CFF4F208120
:101750003181E054F040DF01AE5BBF4F8D919C9131
:1017600011972817390719F42FEF3FEF07C08D9114
:101770009C91E80FF91F8081282F30E0C90108955E
:10178000DC011C96ED91FC911D97E05CFF4F2081E0
:101790003181E054F040DF01AE5BBF4F8D919C91F1
:1017A00011972817390719F42FEF3FEF10C08D91CB
:1017B0009C911197E80FF91F20818D919C911197B1
:1017C00001968F73907011969C938E9330E0C901AF
:1017D0000895FC0186859785DC01A05CBF4FFC0164
:1017E000EE5BFF4F2D913C911197808191812817DD
:1017F0003907C1F70895CF93DF93EC01462FEE85AB
:10180000FF85E05CFF4F80819181E054F0400196BC
:1018100060E470E00E9408459C01DF01AE5BBF4FB1
:101820008D919C91119728173907D1F3E05CFF4FF8
:1018300080819181E054F040E80FF91F4083EE85EC
:10184000FF85E05CFF4F31832083EE89FF89208193
:1018500081E090E00D8C02C0880F991F0A94E2F796
:10186000282B208381E090E0DF91CF9108951F9392
:101870001092E1051092E00528EE33E040E050E0E0
:101880002093E2053093E3054093E4055093E5058A
:101890006DEF72E07093DF056093DE058EEB93E0F1
:1018A0009093EB058093EA0582E094E09093ED0538
:1018B0008093EC0585EC90E09093EF058093EE0526
:1018C00084EC90E09093F1058093F00580EC90E03B
:1018D0009093F3058093F20581EC90E09093F505E9
:1018E0008093F40586EC90E09093F7058093F605DD
:1018F00014E01093F805B3E0B093F905A7E0A093C6
:10190000FA05F5E0F093FB05E1E0E093FC051092A9
:1019100000061092FF0520930106309302064093C3
:101920000306509304067093FE056093FD0586E45C
:1019300094E090930A06809309068AE894E09093D5
:101940000C0680930B068DEC90E090930E0680932E
:101950000D068CEC90E09093100680930F0688ECB7
:1019600090E0909312068093110689EC90E090939A
:101970001406809313068EEC90E0909316068093E5
:10198000150610931706B0931806A0931906F09346
:101990001A06E0931B0610921F0610921E06209353
:1019A000200630932106409322065093230670931D
:1019B0001D0660931C068EEC94E09093290680939C
:1019C000280682E195E090932B0680932A0685ED08
:1019D00090E090932D0680932C0684ED90E09093F8
:1019E0002F0680932E0680ED90E090933106809331
:1019F000300681ED90E0909333068093320686EDB9
:101A000090E0909335068093340610933606B09399
:101A10003706A0933806F0933906E0933A06109201
:101A20003E0610923D0620933F06309340064093B9
:101A300041065093420670933C0660933B0686E550
:101A400095E090934806809347068AE995E0909345
:101A50004A068093490685E391E090934C06809373
:101A60004B0684E391E090934E0680934D0680E30D
:101A700091E09093500680934F0681E391E090931C
:101A800052068093510686E391E09093540680932A
:101A9000530610935506B0935606A0935706F0933D
:101AA0005806E09359061F910895CF92DF92EF9266
:101AB000FF920F931F93CF93DF937C016B018A01F9
:101AC000C0E0D0E00FC0D6016D916D01D701ED915E
:101AD000FC910190F081E02DC7011995C80FD91F25
:101AE000015010400115110571F7CE01DF91CF9122
:101AF0001F910F91FF90EF90DF90CF900895EF929C
:101B0000FF920F931F93CF93DF937C018B01C0E073
:101B1000D0E0F8010F5F1F4F6491662359F0D701A1
:101B2000ED91FC910190F081E02DC7011995C80F4E
:101B3000D91FEFCFCE01DF91CF911F910F91FF9071
:101B4000EF900895DC01ED91FC910190F081E02D82
:101B5000199508959C01DB01ED91FC910190F081B4
:101B6000E02DCB01B90119950895EF92FF920F93E3
:101B70001F938C01DC01ED91FC910190F081E02D2F
:101B80006DE019957C01D801ED91FC910190F081F7
:101B9000E02DC8016AE019959C012E0D3F1DC90179
:101BA0001F910F91FF90EF900895EF92FF920F9386
:101BB0001F937C010E947F0D8C01C7010E94B50D0F
:101BC0009C01200F311FC9011F910F91FF90EF90D1
:101BD0000895EF92FF920F931F937C01DC01ED912A
:101BE000FC910190F081E02D19958C01C7010E94B4
:101BF000B50D080F191FC8011F910F91FF90EF90AD
:101C00000895EF92FF920F931F937C01DB01ED91FA
:101C1000FC910190F081E02DCB01B70119958C0169
:101C2000C7010E94B50D080F191FC8011F910F9120
:101C3000FF90EF900895CF93DF93DB010D9000208C
:101C4000E9F71197A61BB70BEC01E881F981028037
:101C5000F381E02DAD011995DF91CF9108954F9259
:101C60005F927F928F929F92AF92BF92CF92DF92BC
:101C7000EF92FF920F931F93DF93CF93CDB7DEB711
:101C8000A1970FB6F894DEBF0FBECDBF2C01742E06
:101C9000CB01223008F42AE019A231E2C32ED12C64
:101CA000CC0EDD1E822E9924AA24BB24672D752F0D
:101CB000A50194010E941B4579018A01C801B70161
:101CC000A50194010E94E944472D461B0894C108D0
:101CD000D1084A3014F4405D01C0495CF6014083EC
:101CE000E114F1040105110521F07E2C5F2DC801DE
:101CF000DDCFC201B6010E941B0EA1960FB6F8946B
:101D0000DEBF0FBECDBFCF91DF911F910F91FF902E
:101D1000EF90DF90CF90BF90AF909F908F907F908B
:101D20005F904F900895DC012115310541F4ED914C
:101D3000FC910190F081E02D642F199508950E9487
:101D40002F0E0895EF92FF920F931F937C010E9434
:101D5000930E8C01C7010E94B50D9C01200F311F0D
:101D6000C9011F910F91FF90EF900895EF92FF929C
:101D70000F931F939A017B0100E010E0B801A701C7
:101D80000E94930E1F910F91FF90EF900895CF92B4
:101D9000DF92EF92FF920F931F936C017B019A01E8
:101DA00000E010E0B801A7010E94930E8C01C6016B
:101DB0000E94B50D080F191FC8011F910F91FF90C8
:101DC000EF90DF90CF900895EF92FF920F931F93C3
:101DD0009A01E62EFF2400E010E0B801A7010E945E
:101DE000930E1F910F91FF90EF900895CF92DF9285
:101DF000EF92FF920F931F936C01E62E9A01FF243E
:101E000000E010E0B801A7010E94930E8C01C6010A
:101E10000E94B50D080F191FC8011F910F91FF9067
:101E2000EF90DF90CF900895CF92DF92EF92FF92E4
:101E30000F931F93CF93DF93EC016A017B01211570
:101E4000310541F4E881F9810190F081E02D642FA2
:101E500019951FC02A303105D1F477FF17C0E881EA
:101E6000F9810190F081E02D6DE219958C014427F4
:101E70005527BA014C195D096E097F09CE012AE088
:101E80000E942F0E9801280F391F04C02AE00E94DB
:101E90002F0E9C01C901DF91CF911F910F91FF90EF
:101EA000EF90DF90CF900895EF92FF920F931F93E2
:101EB0007C010E94140F8C01C7010E94B50D9C018A
:101EC000200F311FC9011F910F91FF90EF900895CE
:101ED000EF92FF920F931F937B019A010027F7FC6B
:101EE0000095102FB801A7010E94140F1F910F91A8
:101EF000FF90EF900895CF92DF92EF92FF920F93B1
:101F00001F936C017B019A010027F7FC0095102FAD
:101F1000B801A7010E94140F8C01C6010E94B50DE3
:101F2000080F191FC8011F910F91FF90EF90DF90CC
:101F3000CF9008950E941B0E08957F928F929F92DA
:101F4000AF92BF92CF92DF92EF92FF920F931F93C7
:101F5000CF93DF934C017A018B01722ECB01BA0132
:101F600020E030E040E050E00E94334387FD03C0B2
:101F7000C0E0D0E00EC0D401ED91FC910190F08161
:101F8000E02DC4016DE21995EC0117FB109517F9CE
:101F9000109520E030E040E05FE3AA240BC0CA01C6
:101FA000B90120E030E040E251E40E9437439B0158
:101FB000AC01A394A71498F3C801B7010E94CF42C3
:101FC0005B016C010E94A4437B018C01C401B80138
:101FD000A7012AE030E00E94930EC80FD91F772096
:101FE00039F0C40169E173E00E941B0EC80FD91FCC
:101FF000C801B7010E94D0439B01AC01C601B501E5
:102000000E94CE4224C020E030E040E251E40E9431
:1020100086447B018C010E949F435B016C01CC24B0
:10202000B7FCC094DC2CC401B601A5012AE030E065
:102030000E94140FC80FD91FC601B5010E94D243D8
:102040009B01AC01C801B7010E94CE427A9477206F
:10205000D1F6CE01DF91CF911F910F91FF90EF90BC
:10206000DF90CF90BF90AF909F908F907F9008951A
:102070000E949D0F0895EF92FF920F931F937C0192
:102080000E949D0F8C01C7010E94B50D080F191FFA
:10209000C8011F910F91FF90EF900895EF92FF926A
:1020A0000F931F937C010E941B0E8C01C7010E949D
:1020B000B50D080F191FC8011F910F91FF90EF90E8
:1020C0000895AF92BF92CF92DF92EF92FF920F935B
:1020D0001F93CF93DF935C016B01EE24FF24C0E0DC
:1020E000D0E010C0D501ED91FC9100811181C601B5
:1020F000BE010E94A413682FC501F8011995E80ECE
:10210000F91E2196F60184819581C817D90750F3ED
:10211000C701DF91CF911F910F91FF90EF90DF905A
:10212000CF90BF90AF900895EF92FF920F931F93BF
:102130007C010E9461108C01C7010E94B50D9C01B9
:10214000200F311FC9011F910F91FF90EF9008954B
:10215000883008F078C0E82FF0E0EE0FFF1FE65A55
:10216000F94F718360838330D9F0843030F481304B
:1021700009F444C0823060F439C0853051F18530B3
:10218000D8F0863009F446C0873009F05CC04FC0F3
:10219000809169008C7F842B80936900E89A089570
:1021A00080916900440F551F440F551F837F842B76
:1021B00080936900E99A08958091690074E0440F62
:1021C000551F7A95E1F78F7C842B80936900EA9AFA
:1021D00008958091690066E0440F551F6A95E1F704
:1021E0008F73842B80936900EB9A089580916A0025
:1021F0008C7F842B80936A00EC9A089580916A000A
:10220000440F551F440F551F837F842B80936A0012
:10221000ED9A089580916A0024E0440F551F2A9595
:10222000E1F78F7C842B80936A00EE9A0895809169
:102230006A0096E0440F551F9A95E1F78F73842B3F
:1022400080936A00EF9A0895883048F5833091F0C2
:10225000843028F48130B1F0823050F411C08530E0
:1022600069F0853048F0863079F0873081F40EC00F
:10227000E8980DC0E9980BC0EA9809C0EB9807C030
:10228000EC9805C0ED9803C0EE9801C0EF98E82FD8
:10229000F0E0EE0FFF1FE65AF94F11821082089509
:1022A0001F920F920FB60F920BB60F9211242F931D
:1022B0003F934F935F936F937F938F939F93AF93CE
:1022C000BF93EF93FF9380915E0690915F06892BF9
:1022D00029F0E0915E06F0915F061995FF91EF916C
:1022E000BF91AF919F918F917F916F915F914F912E
:1022F0003F912F910F900BBE0F900FBE0F901F902C
:1023000018951F920F920FB60F920BB60F921124D1
:102310002F933F934F935F936F937F938F939F93ED
:10232000AF93BF93EF93FF93809160069091610606
:10233000892B29F0E0916006F09161061995FF91D3
:10234000EF91BF91AF919F918F917F916F915F912D
:102350004F913F912F910F900BBE0F900FBE0F909A
:102360001F9018951F920F920FB60F920BB60F92F7
:1023700011242F933F934F935F936F937F938F938A
:102380009F93AF93BF93EF93FF93809162069091D9
:102390006306892B29F0E0916206F0916306199596
:1023A000FF91EF91BF91AF919F918F917F916F912D
:1023B0005F914F913F912F910F900BBE0F900FBEE9
:1023C0000F901F9018951F920F920FB60F920BB699
:1023D0000F9211242F933F934F935F936F937F93AB
:1023E0008F939F93AF93BF93EF93FF938091640676
:1023F00090916506892B29F0E0916406F0916506BD
:102400001995FF91EF91BF91AF919F918F917F911E
:102410006F915F914F913F912F910F900BBE0F9055
:102420000FBE0F901F9018951F920F920FB60F922C
:102430000BB60F9211242F933F934F935F936F939B
:102440007F938F939F93AF93BF93EF93FF9380916D
:102450005A0690915B06892B29F0E0915A06F0917B
:102460005B061995FF91EF91BF91AF919F918F916D
:102470007F916F915F914F913F912F910F900BBE84
:102480000F900FBE0F901F9018951F920F920FB6CE
:102490000F920BB60F9211242F933F934F935F939C
:1024A0006F937F938F939F93AF93BF93EF93FF931C
:1024B00080915C0690915D06892B29F0E0915C0685
:1024C000F0915D061995FF91EF91BF91AF919F91AA
:1024D0008F917F916F915F914F913F912F910F90CD
:1024E0000BBE0F900FBE0F901F9018951F920F926A
:1024F0000FB60F920BB60F9211242F933F934F9369
:102500005F936F937F938F939F93AF93BF93EF935B
:10251000FF938091660690916706892B29F0E091E0
:102520006606F09167061995FF91EF91BF91AF9103
:102530009F918F917F916F915F914F913F912F91DB
:102540000F900BBE0F900FBE0F901F9018951F920B
:102550000F920FB60F920BB60F9211242F933F9349
:102560004F935F936F937F938F939F93AF93BF939B
:10257000EF93FF938091680690916906892B29F06B
:10258000E0916806F09169061995FF91EF91BF916E
:10259000AF919F918F917F916F915F914F913F91FB
:1025A0002F910F900BBE0F900FBE0F901F9018959C
:1025B0002F923F924F925F926F927F928F929F9253
:1025C000AF92BF92CF92DF92EF92FF920F931F9341
:1025D000DF93CF93CDB7DEB73B014C0119012A0140
:1025E0006E897F89888D998D6A197B098C099D096F
:1025F000621A730A840A950AA40193010E94E944AD
:10260000E218F30804091509A80197010E943D4545
:102610002A0D3B1D4C1D5D1DB901CA01CF91DF91F3
:102620001F910F91FF90EF90DF90CF90BF90AF90F0
:102630009F908F907F906F905F904F903F902F90E2
:102640000895089570E0382F20E0622B732BCB01A2
:102650000895EF92FF920F931F937B018C016115F8
:1026600071058105910529F420E030E040E050E05B
:102670000BC00E949040A80197010E943D45AC010B
:10268000CB01DA019C01AD01B901CA011F910F9183
:10269000FF90EF900895EF92FF920F931F937B01AD
:1026A0008C01621773078407950764F4261B370BA8
:1026B000480B590BCA01B9010E942913E60EF71EF7
:1026C000081F191FB701C8011F910F91FF90EF90CC
:1026D0000895009729F0BC0180E090E00E949540A9
:1026E0000895FC01848195816817790748F4019069
:1026F000F081E02D309721F0E60FF71F80810895DB
:1027000080E00895FC01848195816817790730F491
:102710000190F081E02DE60FF71F40830895FC0142
:102720009B01848195816817790728F46081718104
:102730006115710529F410926A066AE676E002C016
:10274000620F731FCB010895FC0184819581681786
:10275000790748F40190F081E02D309721F0E60FE1
:10276000F71F8081089580E00895FC010190F081B9
:10277000E02D309729F40895861709F440833196A7
:1027800080818823C9F70895FC0180819181009799
:1027900029F420E030E040E050E004C00E947341A2
:1027A0009B01AC01B901CA010895CF92DF92EF926B
:1027B000FF920F931F93CF93DF936C01DC01ED9099
:1027C000FC901197E114F10409F441C01496CD91E5
:1027D000DC9115972097D9F1870102C00F5F1F4F39
:1027E000F8018081992787FD90950E947245892B79
:1027F000A9F72197CE0DDF1D01C021978881992768
:1028000087FD90950E947245892B19F0C017D1075A
:10281000A0F7FE013196E01BF10BD6011596FC9353
:10282000EE9314972D913C912017310728F4C9019C
:10283000B801AF010E949A41D601ED91FC91119728
:1028400014968D919C911597E80FF91F1082DF91D6
:10285000CF911F910F91FF90EF90DF90CF9008954F
:10286000CF93DF93FC01C081D181209739F409C057
:10287000992787FD90950E948245899388818823B6
:10288000B9F7DF91CF910895CF93DF93FC01C08119
:10289000D181209739F409C0992787FD90950E942E
:1028A0007A45899388818823B9F7DF91CF9108957C
:1028B000EF92FF920F931F93CF93DF93FC01DB0105
:1028C0008617970739F12481358114968D919C9153
:1028D00015972817390701F5232BE1F0E080F180E7
:1028E000CD91DC9113C0992787FD90950E947A4580
:1028F0008C018881992787FD90950E947A45081759
:10290000190751F40894E11CF11C2196F70180810C
:10291000882349F781E001C080E0DF91CF911F91CA
:102920000F91FF90EF900895AF92BF92CF92DF92F8
:10293000EF92FF920F931F93CF93DF93FC015B0104
:102940007A01DB0114962D913C91159721153105E3
:1029500059F184819581009739F18217930720F10D
:102960004817590720F07C010894E108F10800811C
:102970001181C801CFEFDFEF6801CE0CDF1C10C062
:10298000F501608171810E94FF419C01009771F007
:10299000801B910BE816F90608F0EC01C9010196BD
:1029A000C816D90668F702C0CFEFDFEFCE01DF917E
:1029B000CF911F910F91FF90EF90DF90CF90BF903C
:1029C000AF900895FC01DB014481558114968D91EF
:1029D0009C911597481B590BCF010E9494140895A0
:1029E000CF93DF93FC01DB01848195814817590760
:1029F00060F4C081D1816D917C91CE01840F951FCF
:102A00000E94FF419C01009719F42FEF3FEF02C095
:102A10002C1B3D0BC901DF91CF91089540E050E0A0
:102A20000E94F0140895DF92EF92FF920F931F938C
:102A3000CF93DF93EC018C819D8148175907C8F42F
:102A40007A010894E11CF11CE881F981EE0DFF1D6B
:102A5000D080108208811981772767FD7095C801A1
:102A60000E94F4419C010E0D1F1DF801D0820097B9
:102A700019F4EFEFFFEF05C088819981F901E81B98
:102A8000F90BCF01DF91CF911F910F91FF90EF9044
:102A9000DF900895FC0144815581415050400E94CF
:102AA00013150895CF93DF93FC0184819581481716
:102AB000590768F4C081D181772767FD7095CE01F1
:102AC000840F951F0E94BC419C01009719F42FEFC1
:102AD0003FEF02C02C1B3D0BC901DF91CF91089540
:102AE00040E050E00E94521508950F931F93CF933A
:102AF000DF93FC018B0141155105F9F0611571055A
:102B0000E1F0848195812817390718F0FB011082C4
:102B100014C041505040EC01C21BD30B4C175D0751
:102B200008F4EA0160817181620F731FC801AE0170
:102B30000E94E541C00FD11F1882DF91CF911F91F4
:102B40000F910895FC01DB012481358114964D918C
:102B50005C91159724173507A8F080819181009723
:102B600089F06D917C916115710561F0241B350B25
:102B7000820F931F0E94C7419C0180E0232B19F410
:102B800081E0089580E00895DC01FB0114968D91A9
:102B90009C911597892B31F461157105A9F090E08E
:102BA000808108C00D90BC91A02D6115710529F49C
:102BB00090E08C91882349F407C0CD010E94C74161
:102BC0009C0190E0232B09F491E0892F0895CF9385
:102BD000DF939C01FB01EC01A881B981109729F0DA
:102BE0006081718161157105D1F4C081D181209717
:102BF00059F084819581892B39F0888190E02227D2
:102C00003327281B390B12C0109771F0F90184810A
:102C10009581892B49F08C91282F30E007C0CD0198
:102C20000E94C7419C0102C020E030E0C901DF9151
:102C3000CF9108950E94E715892F8095881F8827D6
:102C4000881F08950E94E71520E0181619060CF059
:102C500021E0822F08950E94E71520E0181619063A
:102C60000CF421E0822F08950E94E715892F881F18
:102C70008827881F0895FC01DB0124813581149683
:102C80008D919C9115972817390711F020E007C006
:102C9000CF010E94E71520E0892B09F421E0822F63
:102CA0000895FC01DB0114962D913C9115978481C8
:102CB0009581821B930B84179507A0F080819181E9
:102CC000009781F06D917C916115710559F0840F29
:102CD000951FA9010E94D7419C0180E0232B19F484
:102CE00081E0089580E00895FC01DB0124813581B5
:102CF00014968D919C9115972817390710F480E050
:102D00000895CF0140E050E00E94511608950F93BE
:102D10001F93CF93DF93EC018B016F5F7F4F88810F
:102D200099810E949E40009711F480E005C099832C
:102D300088831B830A8381E0DF91CF911F910F91DC
:102D400008952F923F924F925F926F927F928F924F
:102D50009F92AF92BF92CF92DF92EF92FF920F932A
:102D60001F93CF93DF935C012B014A01DC01149682
:102D70000D911C9115970115110509F4D4C0FB01A3
:102D8000C480D580C114D10409F4CDC0DA011496F1
:102D90006D907C9015976C187D08FC01E080F180A7
:102DA0006114710491F01BC0D4016C9111967C9157
:102DB000119714964D915C9115978C2F0E949A4112
:102DC000F401E480F580EC0EFD1ED2016D917C9142
:102DD000C7010E94FF41EC01009731F7A4C077FEC4
:102DE00002C067012EC0FB0120803180E8013CC099
:102DF0008E010E191F09C601B701A8010E949A4150
:102E00000C0D1D1DD4016C9111967C911197149697
:102E10004D915C911597C8010E949A41F401C480BC
:102E2000D580C00ED11ED2011496ED90FC9015975E
:102E3000EC0EFD1EF50184819581860D971D95830D
:102E40008483D2016D917C91C7010E94FF41EC0106
:102E5000009771F6C601B7010E94D04164C07B01A2
:102E6000EC0CFD1CC60DD71DC701B1010E94FF412E
:102E7000BC010097A1F7C017D10709F454C0F501B0
:102E8000828193818C179D0708F044C0C501BE0163
:102E90000E9487168823F1F546C0C501B201A90139
:102EA0000E949414EC0197FD3EC0D5016D917C9178
:102EB0001197F201848195818C0F9D1F680F791FF6
:102EC00014964D915C911597481B590BCB01860DBB
:102ED000971D0E94A341D50114968D919C91159741
:102EE000860D971D15969C938E931497ED91FC91EA
:102EF0001197E80FF91F10822D913C912C0F3D1F67
:102F0000F4016081718144815581C9010E949A4117
:102F10009E0105C0D50114962D913C911597215025
:102F2000304037FFBACFDF91CF911F910F91FF90C3
:102F3000EF90DF90CF90BF90AF909F908F907F9059
:102F40006F905F904F903F902F900895CF93DF93B5
:102F5000EC0188819981892B29F08A819B818617D0
:102F6000970760F4CE010E948716882341F08C8178
:102F70009D81892B19F4E881F981108281E0DF912C
:102F8000CF910895EF92FF920F931F93CF93DF930A
:102F9000EC017B016C817D81E114F104C1F04115EC
:102FA000510599F08A01060F171FB8010E94A61754
:102FB000882369F0888199812C813D81820F931F3C
:102FC000B7010E94D0411D830C8381E001C080E0E5
:102FD000DF91CF911F910F91FF90EF900895EF92A5
:102FE000FF920F931F93DF93CF93CDB7DEB72B974D
:102FF0000FB6F894DEBF0FBECDBF7C01CB01BA0186
:103000008E010F5F1F4FA8012AE030E00E9483422B
:10301000F80101900020E9F73197E01BF10BC7019F
:10302000B801AF010E94C2172B960FB6F894DEBF0D
:103030000FBECDBFCF91DF911F910F91FF90EF9009
:103040000895EF92FF920F931F93DF93CF93CDB725
:10305000DEB72C970FB6F894DEBF0FBECDBF7C0154
:10306000CB01BA018E010F5F1F4FA8012AE030E0AB
:103070000E943A42F80101900020E9F73197E01BE5
:10308000F10BC701B801AF010E94C2172C960FB611
:10309000F894DEBF0FBECDBFCF91DF911F910F918E
:1030A000FF90EF900895EF92FF920F931F93DF939D
:1030B000CF9300D000D0CDB7DEB77C01CB018E011D
:1030C0000F5F1F4FB8014AE050E00E94A842F8018C
:1030D00001900020E9F73197E01BF10BC701B8011F
:1030E000AF010E94C21726960FB6F894DEBF0FBE3E
:1030F000CDBFCF91DF911F910F91FF90EF90089579
:10310000EF92FF920F931F93DF93CF93CDB7DEB76C
:1031100027970FB6F894DEBF0FBECDBF7C01CB0161
:103120008E010F5F1F4FB8014AE050E00E94194224
:10313000F80101900020E9F73197E01BF10BC7017E
:10314000B801AF010E94C21727960FB6F894DEBFF0
:103150000FBECDBFCF91DF911F910F91FF90EF90E8
:103160000895EF92FF920F931F93DF93CF9300D0B8
:103170000F92CDB7DEB77C01862F90E08E010F5FF6
:103180001F4FB8014AE050E00E941942F801019037
:103190000020E9F73197E01BF10BC701B801AF013F
:1031A0000E94C2170F900F900F900F90CF91DF9158
:1031B0001F910F91FF90EF900895DF93CF930F929F
:1031C0000F92CDB7DEB769831A82BE016F5F7F4F62
:1031D00041E050E00E94C2170F900F90CF91DF9115
:1031E00008956115710511F480E00895DB010D90DB
:1031F0000020E9F71197A61BB70BAD010E94C2177B
:103200000895FB0160817181448155810E94C2173C
:103210000895CF93DF93EC0188819981009711F095
:103220000E94E53F198218821D821C821B821A822D
:10323000DF91CF9108950F931F93182F092F0E94AC
:10324000EF17882321F4812F902F0E940919812FD5
:10325000902F1F910F9108950F931F93182F092FEF
:103260000E942118882321F4812F902F0E94091990
:10327000812F902F1F910F9108950F931F93182F57
:10328000092F0E945318882321F4812F902F0E9428
:103290000919812F902F1F910F9108950F931F935C
:1032A000182F092F0E948018882321F4812F902F36
:1032B0000E940919812F902F1F910F9108950F934C
:1032C0001F93182F092F0E94B118882321F4812FF2
:1032D000902F0E940919812F902F1F910F9108950F
:1032E0000F931F93182F092F0E94DD18882321F4B4
:1032F000812F902F0E940919812F902F1F910F91DC
:1033000008950F931F93182F092F6115710561F010
:10331000DB010D900020E9F71197A61BB70BAD015B
:103320000E94C217882321F4812F902F0E9409192F
:10333000812F902F1F910F9108950F931F93182F96
:10334000092FFB0160817181448155810E94C21760
:10335000882321F4812F902F0E940919812F902F0B
:103360001F910F910895EF92FF920F931F93CF93A8
:10337000DF93EC017B018A01BA010E94A617882322
:1033800021F4CE010E94091907C01D830C83888196
:103390009981B7010E94D041CE01DF91CF911F9159
:1033A0000F91FF90EF900895CF93DF93EC01198276
:1033B00018821B821A821D821C821E826115710571
:1033C00051F0DB010D900020E9F71197A61BB70B18
:1033D000AD010E94B319DF91CF910895CF93DF9390
:1033E000EC01198218821B821A821D821C821E82A5
:1033F0006115710551F0DB010D900020E9F711977F
:10340000A61BB70BAD010E94B319DF91CF910895B0
:103410000F931F93182F092F6115710559F0DB01C8
:103420000D900020E9F71197A61BB70BAD010E9484
:10343000B31902C00E940919812F902F1F910F917B
:103440000895EF92FF920F931F93DF93CF93CDB721
:10345000DEB7A1970FB6F894DEBF0FBECDBF8C01CB
:10346000FC0111821082138212821582148216824C
:10347000CB01BA017E010894E11CF11CA70130E0E8
:103480000E948342C801B7010E94081AA1960FB694
:10349000F894DEBF0FBECDBFCF91DF911F910F918A
:1034A000FF90EF900895EF92FF920F931F93DF9399
:1034B000CF93CDB7DEB7A1970FB6F894DEBF0FBE9E
:1034C000CDBF8C01FC011182108213821282158201
:1034D00014821682CB01BA017E010894E11CF11C12
:1034E000A70130E00E948342C801B7010E94081A78
:1034F000A1960FB6F894DEBF0FBECDBFCF91DF917E
:103500001F910F91FF90EF900895EF92FF920F930C
:103510001F93DF93CF93CDB7DEB7A2970FB6F89482
:10352000DEBF0FBECDBF8C01FC0111821082138261
:103530001282158214821682CB01BA017E01089490
:10354000E11CF11CA70130E00E943A42C801B7011A
:103550000E94081AA2960FB6F894DEBF0FBECDBF28
:10356000CF91DF911F910F91FF90EF900895EF920F
:10357000FF920F931F93DF93CF93CDB7DEB7A29740
:103580000FB6F894DEBF0FBECDBF8C01FC011182D7
:10359000108213821282158214821682CB01BA0124
:1035A0007E010894E11CF11CA70130E00E943A4220
:1035B000C801B7010E94081AA2960FB6F894DEBFA0
:1035C0000FBECDBFCF91DF911F910F91FF90EF9074
:1035D0000895EF92FF920F931F93DF93CF93CDB790
:1035E000DEB761970FB6F894DEBF0FBECDBF8C017A
:1035F000CB01F8011182108213821282158214828B
:1036000016827E010894E11CF11CB70150E00E9473
:10361000A842C801B7010E94081A61960FB6F89433
:10362000DEBF0FBECDBFCF91DF911F910F91FF90F5
:10363000EF900895EF92FF920F931F93DF93CF9334
:10364000CDB7DEB761970FB6F894DEBF0FBECDBF22
:103650008C01CB01F8011182108213821282158233
:10366000148216827E010894E11CF11CB70150E01F
:103670000E94A842C801B7010E94081A61960FB6BD
:10368000F894DEBF0FBECDBFCF91DF911F910F9198
:10369000FF90EF900895EF92FF920F931F93DF93A7
:1036A000CF93CDB7DEB762970FB6F894DEBF0FBEEB
:1036B000CDBF8C01CB01F8011182108213821282DE
:1036C0001582148216827E010894E11CF11CB70158
:1036D00050E00E941942C801B7010E94081A629680
:1036E0000FB6F894DEBF0FBECDBFCF91DF911F9113
:1036F0000F91FF90EF900895EF92FF920F931F9319
:10370000DF93CF93CDB7DEB762970FB6F894DEBFE5
:103710000FBECDBF8C01CB01F80111821082138244
:1037200012821582148216827E010894E11CF11C1B
:10373000B70150E00E941942C801B7010E94081A5F
:1037400062960FB6F894DEBF0FBECDBFCF91DF916A
:103750001F910F91FF90EF900895EF92FF920F93BA
:103760001F93DF93CF93CDB7DEB729970FB6F894A9
:10377000DEBF0FBECDBF8C01862FF80111821082F3
:103780001382128215821482168290E07E010894C0
:10379000E11CF11CB70150E00E94A842C801B7012A
:1037A0000E94081A29960FB6F894DEBF0FBECDBF4F
:1037B000CF91DF911F910F91FF90EF900895EF92BD
:1037C000FF920F931F93DF93CF93CDB7DEB7299767
:1037D0000FB6F894DEBF0FBECDBF8C01862FF80167
:1037E000118210821382128215821482168290E056
:1037F0007E010894E11CF11CB70150E00E94A84230
:10380000C801B7010E94081A29960FB6F894DEBFC6
:103810000FBECDBFCF91DF911F910F91FF90EF9021
:103820000895DF93CF930F920F92CDB7DEB7FC01CF
:103830001182108213821282158214821682698389
:103840001A82BE016F5F7F4F0E94081A0F900F907F
:10385000CF91DF910895DF93CF930F920F92CDB761
:10386000DEB7FC011182108213821282158214824B
:10387000168269831A82BE016F5F7F4F0E94081A09
:103880000F900F90CF91DF910895BF92CF92DF926A
:10389000EF92FF920F931F93CF93DF93082FB92ED0
:1038A0006B017A01E9012417350710F4EA01790167
:1038B000802F9B2D63E273E00E94D419D6011496E9
:1038C0008D919C9115978E159F05D0F08C179D07B3
:1038D00008F4EC01D601ED91FC911197EC0FFD1F5E
:1038E000108110826D917C916E0D7F1D802F9B2D1C
:1038F0000E94081AD601ED91FC91EC0FFD1F108378
:10390000802F9B2DDF91CF911F910F91FF90EF9012
:10391000DF90CF90BF9008950F931F938C01FB0110
:10392000248135810E94451CC8011F910F91089583
:10393000CF93DF93EC01FB018617970761F060815D
:1039400071816115710529F0448155810E94B31977
:1039500002C00E940919CE01DF91CF910895FC01A8
:1039600011821082138212821582148216820E94A2
:10397000981C0895FC011182108213821282158214
:10398000148216820E94981C0895FC018081918106
:103990000E94E53F0895FC01808191810E94E53FEE
:1039A0000895FC0120E030E08081882311F421E0BB
:1039B00030E0C9010895FC0181E0808308950895F5
:1039C00008950E94E53F08950E943B3F08951F928D
:1039D0000F920FB60F9211242F933F938F939F93C3
:1039E000AF93BF9380916F0690917006A09171067E
:1039F000B0917206309173060196A11DB11D232F5F
:103A00002D5F2D3720F02D570196A11DB11D20935C
:103A1000730680936F0690937006A0937106B0931F
:103A2000720680916B0690916C06A0916D06B09124
:103A30006E060196A11DB11D80936B0690936C06D6
:103A4000A0936D06B0936E06BF91AF919F918F9139
:103A50003F912F910F900FBE0F901F9018958FB729
:103A6000F89420916F063091700640917106509144
:103A700072068FBFB901CA0108959FB7F8942091CB
:103A80006B0630916C0640916D0650916E0686B5BE
:103A9000A89B06C08F3F21F02F5F3F4F4F4F5F4FD6
:103AA0009FBF542F432F322F2227280F311D411D36
:103AB000511D82E0220F331F441F551F8A95D1F7F5
:103AC000B901CA0108959B01AC017FB7F8948091B8
:103AD0006B0690916C06A0916D06B0916E0666B56E
:103AE000A89B05C06F3F19F00196A11DB11D7FBFB6
:103AF000BA2FA92F982F8827860F911DA11DB11DC0
:103B000062E0880F991FAA1FBB1F6A95D1F7BC01FD
:103B10002DC0FFB7F89480916B0690916C06A09130
:103B20006D06B0916E06E6B5A89B05C0EF3F19F093
:103B30000196A11DB11DFFBFBA2FA92F982F88276D
:103B40008E0F911DA11DB11DE2E0880F991FAA1FC4
:103B5000BB1FEA95D1F7861B970B885E9340C8F28E
:103B6000215030404040504068517C4F2115310574
:103B70004105510571F60895019739F0880F991F95
:103B8000880F991F02970197F1F70895789484B5EB
:103B9000826084BD84B5816084BD85B5826085BD49
:103BA00085B5816085BDEEE6F0E08081816080832F
:103BB000E1E8F0E010828081826080838081816012
:103BC0008083E0E8F0E0808181608083E1EBF0E0D9
:103BD000808184608083E0EBF0E08081816080837D
:103BE000E1E9F0E080818260808380818160808370
:103BF000E0E9F0E0808181608083E1EAF0E08081AB
:103C000082608083808181608083E0EAF0E080814F
:103C100081608083E1E2F1E0808182608083808145
:103C200081608083E0E2F1E0808181608083EAE767
:103C3000F0E08081846080838081826080838081E5
:103C4000816080838081806880831092C1000895A4
:103C5000809324030895382F863308F0365320913B
:103C60007B00832F86958695869590E08170907075
:103C700043E0880F991F4A95E1F7277F282B20936F
:103C80007B003770809124038295880F880F807C99
:103C9000832B80937C0080917A00806480937A00EB
:103CA00080917A0086FDFCCF2091780040917900C8
:103CB000942F80E030E0282B392BC90108951F9301
:103CC000CF93DF93182FEB0161E00E943A1F2097FA
:103CD00009F4C5C0CF3FD10509F4C4C0E12FF0E01D
:103CE000E254FE4F8491893009F466C08A30B0F402
:103CF0008430F1F1853040F4823059F1833070F531
:103D0000813009F0A9C020C0873009F443C0883051
:103D100008F048C0863009F09FC034C08D3009F4E7
:103D200073C08E3038F48B3009F45AC08C3008F0F0
:103D300061C04CC0803109F47BC0813109F482C07C
:103D40008F3009F089C06AC084B5806884BDC7BD62
:103D50008DC084B5806284BDC8BD88C0809180005C
:103D6000806880938000D0938900C09388007EC0D3
:103D700080918000806280938000D0938B00C093FC
:103D80008A0074C08091B00080688093B000C093B6
:103D9000B3006CC08091B00080628093B000C0938B
:103DA000B40064C080919000806880939000D093AC
:103DB0009900C09398005AC08091900080628093CF
:103DC0009000D0939B00C0939A0050C080919000C7
:103DD000886080939000D0939D00C0939C0046C063
:103DE0008091A00080688093A000D093A900C09328
:103DF000A8003CC08091A00080628093A000D09376
:103E0000AB00C093AA0032C08091A000886080936C
:103E1000A000D093AD00C093AC0028C080912001D9
:103E2000806880932001D0932901C09328011EC08F
:103E300080912001806280932001D0932B01C09358
:103E40002A0114C080912001886080932001D093C2
:103E50002D01C0932C010AC0C038D1051CF4812F5C
:103E600060E002C0812F61E00E94D41FDF91CF91FA
:103E70001F910895482F50E0CA0188589E4FFC01B9
:103E800024914E5C5E4FFA0184918823C1F0E82FA3
:103E9000F0E0EE0FFF1FEC51FF4FA591B4916623A8
:103EA00041F49FB7F8948C91209582238C939FBF07
:103EB00008959FB7F8948C91822B8C939FBF08959F
:103EC000893009F449C08A30A0F4843051F185303A
:103ED00040F4823079F1833000F5813009F063C01D
:103EE00026C0873079F1883098F5863009F05BC0BC
:103EF00025C08D3009F442C08E3028F48B30B1F1EA
:103F00008C30C0F52DC0803109F442C0813109F4F4
:103F100045C08F3009F047C037C0809180008F774F
:103F200003C0809180008F7D80938000089584B5C8
:103F30008F7702C084B58F7D84BD08958091B000D5
:103F40008F7703C08091B0008F7D8093B00008957B
:103F5000809190008F7707C0809190008F7D03C083
:103F600080919000877F8093900008958091A000B9
:103F70008F7707C08091A0008F7D03C08091A00043
:103F8000877F8093A0000895809120018F7703C0E0
:103F9000809120018F7D80932001089580912001E0
:103FA000877F809320010895FF920F931F93F62E31
:103FB000482F50E0CA0182549E4FFC012491CA014F
:103FC00088589E4FFC0114914E5C5E4FFA0104919B
:103FD0000023C9F0222319F0822F0E94601FE02FD6
:103FE000F0E0EE0FFF1FE250FF4FA591B4919FB795
:103FF000F894FF2021F48C911095812302C08C91BC
:10400000812B8C939FBF1F910F91FF9008950F9369
:104010001F93482F50E0CA0182549E4FFC01249107
:10402000CA0188589E4FFC0104914E5C5E4FFA0114
:104030001491112319F420E030E015C0222319F067
:10404000822F0E94601F812F90E0880F991F885E49
:104050009E4FFC01A591B4918C9120E030E080232B
:1040600011F021E030E0C9011F910F9108958130D6
:10407000910579F0823091051CF4892B39F008956F
:104080008230910549F0039781F40BC08EED95E0E5
:1040900005C08DEF95E002C08CE196E00E94550DC1
:1040A00008958BE396E00E94550D08950F931F939A
:1040B000CF93DF938A01E9018130910581F082304D
:1040C00091051CF4009741F014C08230910551F025
:1040D0008330910571F409C08EED95E008C08DEF35
:1040E00095E005C08CE196E002C08BE396E00E946B
:1040F000C00BF8018083198218828F5F9F4F21F0D7
:1041000081E090E099838883DF91CF911F910F9197
:1041100008958130910579F0823091051CF4892B46
:1041200039F008958230910549F0039781F40BC06E
:104130008EED95E005C08DEF95E002C08CE196E034
:104140000E94A30A08958BE396E00E94A30A0895B3
:1041500080E090E00895EF92FF920F931F93CF932A
:10416000DF93162F072F7A01E901198218828EED4D
:1041700095E00E948F0B892BD1F0812F902F9C010D
:10418000890110C08EED95E00E94C00B2FEF8F3F8C
:10419000920741F0F80181938F01888199810196FE
:1041A00099838883888199818E159F0558F380E0D3
:1041B00090E0DF91CF911F910F91FF90EF900895C4
:1041C000EF92FF920F931F938A0179018EED95E094
:1041D0000E94550DF7011183008380E090E01F914C
:1041E0000F91FF90EF9008950E94C61D8EED95E00F
:1041F00040E052EC61E070E00E94A30A04C08EED42
:1042000095E00E94C00B8EED95E00E948F0B892BEC
:10421000B1F780E090E00895AF92BF92CF92DF9225
:10422000EF92FF920F931F935C016A017B0100E004
:1042300010E020E030E00E94822AC501B701A6010B
:1042400001E010E020E030E00E94822A1F910F91EF
:10425000FF90EF90DF90CF90BF90AF90089560E017
:1042600070E080E090E00E945A2A61E070E080E017
:1042700090E00E945A2A08950F931F938C0160E0EA
:1042800070E080E090E0A8010E94F12961E070E018
:1042900080E090E0A8010E94F1291F910F910895FC
:1042A000CF92DF92EF92FF920F931F93DF93CF9302
:1042B00000D00F92CDB7DEB77C0180917A06909145
:1042C0007B068E159F050CF58091780690917906F6
:1042D000009731F00E94E53F10927B0610927A061B
:1042E000C7010E943B3F9093790680937806009720
:1042F00041F400E010E083E0C82ED12CCC0EDD1E8E
:104300001CC0F0927B06E0927A0600E010E06E019D
:104310000894C11CD11C27C0809176069091770625
:1043200061E070E0A6012CE736E00E941D3B882387
:1043300011F58B819C81080F191F0E151F0564F361
:104340001AC0B701601B710B200F311F80917606D8
:1043500090917706A6010E941D3B882361F4898114
:104360009A81080F191F20917806309179060E1551
:104370001F053CF302C020E030E0C9010F900F9010
:104380000F900F90CF91DF911F910F91FF90EF90C1
:10439000DF90CF900895AF92BF92CF92DF92FF92BD
:1043A0000F931F93DF93CF93CDB7DEB72A970FB646
:1043B000F894DEBF0FBECDBF8B016A01A0E0B0E074
:1043C0008B839C83AD83BE83CB01AA2797FDA095E9
:1043D000BA2F8F839887A987BA87809176069091A4
:1043E000770668E070E0AE014D5F5F4F5E010894B4
:1043F000A11CB11C95010E94183AF82E8823B9F42B
:1044000089819A81089799F4C114D10491F080911F
:10441000760690917706B801A60195010E94183A98
:10442000882329F489819A818017910711F0FF244C
:10443000F3948F2D2A960FB6F894DEBF0FBECDBF32
:10444000CF91DF911F910F91FF90DF90CF90BF90A0
:10445000AF900895AF92BF92CF92DF92EF92FF920A
:104460000F931F93DF93CF93CDB7DEB72C970FB683
:10447000F894DEBF0FBECDBF7C016B01CA015901AC
:104480000E945021FC010097D1F481E090E0A0E06F
:10449000B0E08D839E83AF83B8878FEF9FEFAFEF40
:1044A000BFEF89879A87AB87BC87C70168E070E058
:1044B000AE014B5F5F4F0E94CB2111E04FC00081E6
:1044C00011812281338109831A832B833C838BE101
:1044D000E816F10461F08CE1E816F10451F5349628
:1044E000C601BF01A90198010E94632F06C034963E
:1044F000C601B501AF010E945233182F8823C9F0BD
:1045000029813A814B815C8181E090E0A0E0B0E0BC
:104510008D839E83AF83B88729873A874B875C87D3
:10452000C70168E070E0AE014B5F5F4F0E94CB2196
:1045300015C089819A81AB81BC811D821E821F8238
:10454000188689879A87AB87BC87C70168E070E0C7
:10455000AE014B5F5F4F0E94CB21182F812F2C960D
:104560000FB6F894DEBF0FBECDBFCF91DF911F9184
:104570000F91FF90EF90DF90CF90BF90AF90089594
:10458000EF92FF920F931F93DF93CF93CDB7DEB7D8
:104590002C970FB6F894DEBF0FBECDBF8C01CB01B8
:1045A0007A010E945021FC010097D1F481E090E053
:1045B000A0E0B0E08D839E83AF83B8878FEF9FEF3D
:1045C000AFEFBFEF89879A87AB87BC87C80168E0E8
:1045D00070E0AE014B5F5F4F0E94CB2181E028C0AD
:1045E000608171818281938169837A838B839C83CB
:1045F0000D31110531F00E31110531F40E942D29D4
:1046000003C0A7010E94E02889819A81AB81BC8107
:104610001D821E821F82188689879A87AB87BC8776
:10462000C80168E070E0AE014B5F5F4F0E94CB2194
:104630002C960FB6F894DEBF0FBECDBFCF91DF91A1
:104640001F910F91FF90EF9008950F931F938C018E
:10465000109275061092740660E070E080E090E0C1
:10466000A8010E94453261E070E080E090E0A8017E
:104670000E94453280917606909177060E943739E4
:104680001F910F910895CF92DF92EF92FF920F93B7
:104690001F936B017C0189019A01809176069091AC
:1046A0007706B701A6010E9436391F910F91FF903E
:1046B000EF90DF90CF9008951F93809176069091B0
:1046C00077060E941D39182F882361F460E070E09E
:1046D00080E090E00E944E3161E070E080E090E088
:1046E0000E944E31812F1F9108952F923F924F9239
:1046F0005F926F927F928F929F92AF92BF92CF9272
:10470000DF92EF92FF920F931F93DF93CF93CDB77A
:10471000DEB72A970FB6F894DEBF0FBECDBF5B01A0
:104720006C012A0180917506882309F46FC08E01FF
:104730000D5F1F4FC801B601A50192010E945532BD
:104740001E010894211C311C09871A8752C00D8153
:104750001E81060D171DF801E080F1804281538112
:104760008091760690917706B70191010E94183AE0
:10477000882309F048C089819A818E159F0509F028
:1047800042C0F801E480F5801E141F048CF44681B9
:1047900057818091760690917706B70191010E942A
:1047A000183A882381F589819A818E159F0559F5DC
:1047B000C401880F991FEF81F885E80FF91F8081E8
:1047C0009181B601A5010E9459290894811C911C70
:1047D00088E090E0680E791E8B819C81881699068E
:1047E0000CF4B5CF89859A85B601A50192010E9486
:1047F00055328B819C811816190644F4882499241B
:1048000066247724E9CFC2010E9425232A960FB699
:10481000F894DEBF0FBECDBFCF91DF911F910F91F6
:10482000FF90EF90DF90CF90BF90AF909F908F90D0
:104830007F906F905F904F903F902F9008951F93BF
:10484000CF93DF93EC0160E070E080E090E00E94A5
:10485000C32860E070E080E090E0AE010E94752324
:1048600060E070E080E090E0AE010E9477318091DE
:10487000780690917906009731F00E94E53F1092FA
:1048800079061092780661E070E080E090E00E9486
:10489000C32861E070E080E090E0AE010E947523E3
:1048A00061E070E080E090E0AE010E94773180919D
:1048B000780690917906009731F00E94E53F1092BA
:1048C00079061092780680917406882311F410E01E
:1048D0000BC084E190E060E070E040E050E00E94B6
:1048E000CB21182F1092740680917506882341F011
:1048F0001092750681E090E09093630380936203C9
:1049000080917606909177060E943C3D80917606D4
:10491000909177060E943539812FDF91CF911F91B9
:1049200008952F923F924F925F926F927F928F9253
:104930009F92AF92BF92CF92DF92EF92FF920F932E
:104940001F93DF93CF93CDB7DEB7A0970FB6F89440
:10495000DEBF0FBECDBF6C017B012A0180917506C1
:10496000882359F4809176069091770665E776E082
:104970000E941F39882309F005C38091750688239A
:1049800009F400C31A82198200E010E058E0652E95
:10499000712C4BE0842E912C8C0E9D1E5E01089490
:1049A000A11CB11CB301601B710B9401200F311FBE
:1049B0008091760690917706A5010E941D3B282FD5
:1049C000882351F489819A81080F191F0115110557
:1049D00019F00830110534F389819A81222309F0F6
:1049E000CEC2181619060CF0CDC280917406882329
:1049F00021F41B861C861D861E868B859C85AD85B5
:104A0000BE8586309105A105B10509F468C08730DF
:104A10009105A105B10510F582309105A105B105FB
:104A200009F4ADC283309105A105B10558F4009792
:104A3000A105B10509F468C00197A105B10509F008
:104A4000A1C23EC284309105A105B10509F458C147
:104A50000597A105B10509F095C274C1893091058A
:104A6000A105B10509F483C28A309105A105B105FC
:104A700058F487309105A105B105D1F10897A1053A
:104A8000B10509F07FC226C08B309105A105B105A3
:104A900009F469C28B309105A105B10508F456C22D
:104AA0000F97A105B10509F06DC2D6011696ED91DB
:104AB000FC91179780819181A281B3818B839C8324
:104AC000AD83BE8385E190E064E070E0AE014D5FB0
:104AD0005F4F2DC16F8578898DE190E04CC24F8585
:104AE00058898BE190E0B601970100E613E009C018
:104AF0004F8558898CE190E0B6012FEF3FEF01E63A
:104B000013E00E942A223EC2D6011496ED91FC9138
:104B1000159700811181F801F281FD8FD80113965C
:104B2000BC91BE8FF801F081FB8FD8011196BC912A
:104B3000BC8F30E1832E912CA12CB12C8B8A9C8AC6
:104B4000AD8ABE8A88E090E0A0E0B0E08F8B988FBD
:104B5000A98FBA8F23E1422E512C4C0E5D1E8091FD
:104B600076069091770668E070E0A2013E01089415
:104B7000611C711C93010E94183A882309F0BAC085
:104B800089819A81089709F0B5C0F801E080F18029
:104B900088E090E0E80EF91EEE0CFF1CEE0CFF1C06
:104BA000C7010E943B3F8F8F98A38C011C01009787
:104BB00009F4A2C08B8A9C8AAD8ABE8AC701AA2743
:104BC00097FDA095BA2F8F8B988FA98FBA8F809160
:104BD00076069091770668E070E0A20193010E944A
:104BE000183A882309F088C089819A81089709F0CA
:104BF00083C04B8D5C8DD6011296ED91FC9113977D
:104C0000A080B180C280D380D801AD92BD92CD92F8
:104C1000DC921397A480B580C680D7801496AD929D
:104C2000BD92CD92DC921797A084B184C284D384C4
:104C30001896AD92BD92CD92DC921B978485958596
:104C4000A685B785F80184879587A687B787D80199
:104C500050961D921D921D921C92539784E090E0F5
:104C6000A0E0B0E0848B958BA68BB78B809162031C
:104C700090916303A0E0B0E0808F918FA28FB38FFB
:104C8000CA01AA2797FDA095BA2F848F958FA68F6A
:104C9000B78F2D8D3E8DC901BC012F8D38A1C90163
:104CA000FC0120E030E00CC0DB018D919D91BD0145
:104CB000A0E0B0E0848F958FA68FB78F2F5F3F4F16
:104CC00034962417350784F3809176069091770601
:104CD000B701A8019E012F5F3F4F0E94183A882319
:104CE00059F489819A818E159F0531F481E0809372
:104CF000740602C022243324C1010E94E53F42C150
:104D00008F8598890E945021BC018E01095F1F4F39
:104D1000009781F481E090E0A0E0B0E08F83988775
:104D2000A987BA8782E190E064E070E0A8010E9460
:104D3000CB2128C1C6010E94492E1F8218861986E0
:104D40001A86F0CFD6011496ED91FC91159701903B
:104D5000F081E02DA084B184A114B10409F495C0C0
:104D6000D5016D907C908280938000E010E060E03F
:104D700070E040E050E021C0F501A281B381A40FB2
:104D8000B51F1296ED91FC911397EE0FFF1FE80DE2
:104D9000F91D2081318116968D919C911797DC0128
:104DA0002A9FC0012B9F900D3A9F900D1124080F50
:104DB000191F6F5F7F4F485F5F4F66157705E4F2FD
:104DC00083E190E0A0E0B0E08B8B9C8BAD8BBE8B41
:104DD000C801AA2797FDA095BA2F8F8B988FA98F0E
:104DE000BA8F809176069091770668E070E0AE0108
:104DF0004D5E5F4F6E010894C11CD11C96010E944C
:104E0000183A882309F0BEC089819A81089709F071
:104E1000B9C0EE24FF2400E010E0260132C0F50105
:104E2000A281B381A00FB11F1296ED91FC9113974F
:104E3000EE0FFF1FE80DF91D2081318116968D912F
:104E40009C911797289F6001299FD00C389FD00C08
:104E500011244D915C918091760690917706B60170
:104E600092010E94183A882309F08CC0085F1F4FF6
:104E700089819A818C159D0509F084C00894E11CF4
:104E8000F11CE614F7045CF27DC083E190E0A0E041
:104E9000B0E08B8B9C8BAD8BBE8B1F8A188E198ECE
:104EA0001A8E809176069091770668E070E0AE01E8
:104EB0004D5E5F4F9E012F5F3F4F0E94183A62C0C8
:104EC00081E190E060E070E040E050E00E94CB21A2
:104ED000882309F057C060E070E080E090E00E9415
:104EE000C32880917F06882339F060E070E080E07D
:104EF00090E0A7010E94752360E070E080E090E000
:104F0000A7010E94773161E070E080E090E00E94AC
:104F1000C32880917F06882339F061E070E080E04B
:104F200090E0A7010E94752361E070E080E090E0CE
:104F3000A7010E9477311092750610927406809135
:104F40007606909177060E942C391CC081E090E093
:104F500090937E0680937D0686E190E060E070E0AD
:104F600040E050E0E4CE81E0D2018C930BC06F852D
:104F700078898EE190E0A7010E94C02203C0C7019A
:104F80000E942523A0960FB6F894DEBF0FBECDBFBA
:104F9000CF91DF911F910F91FF90EF90DF90CF9015
:104FA000BF90AF909F908F907F906F905F904F9049
:104FB0003F902F9008950F931F938C0160E070E055
:104FC00080E090E0A8010E94752361E070E080E03D
:104FD00090E0A8010E9475231F910F910895809180
:104FE0007606909177060E942F3908950F931F93AC
:104FF000CF93DF93EC018B010E94323990937706B7
:1050000080937606009719F4C5E2D3E007C0BE018D
:10501000A8010E94BA3CEC01009751F080917606FD
:10502000909177060E943539109277061092760695
:10503000CE01DF91CF911F910F91089508950895AA
:10504000089580E090E060E070E00E94F627089507
:1050500080E090E060E070E00E94F62708950E94F2
:105060001F2408950E945C2308950E943C21089506
:105070000E942F2108950E940C210895CF93DF9361
:105080009C01EB018091620390916303049731F0DE
:10509000C9010E949124CE010E94DB27DF91CF91AC
:1050A0000895EF92FF920F931F93CF93DF937C01AC
:1050B0008B01EA010E94EF27882399F41BC060E06E
:1050C00070E080E090E028ED38EB45E050E00E9491
:1050D0004323C701B801AE010E949124C8010E9478
:1050E000DB2780917D0690917E06892B19F48881BB
:1050F000882329F38091620390916303049731F030
:1051000083E090E09093630380936203DF91CF91FB
:105110001F910F91FF90EF900895EF92FF920F93E0
:105120001F93CF93DF937C018B01EA0112C060E0F3
:1051300070E080E090E028ED38EB45E050E00E9420
:105140004323C701B801AE010E949124C8010E9407
:10515000DB278091620390916303049749F4809167
:105160007D0690917E06892B19F488818823F9F2B7
:1051700010927E0610927D06DF91CF911F910F91C4
:10518000FF90EF90089524E430E0629FF001639F68
:10519000F00D729FF00D1124E058F94F8289938928
:1051A0000497029760F485E090E0938B828B8FEFF9
:1051B0009FEFAFEFBFEF828F938FA48FB58F0895CE
:1051C000CF93DF9324E430E0629FD001639FB00D62
:1051D000729FB00D1124A058B94F10927F069D9672
:1051E0001C921E929C9760E070E020E030E0C1E0ED
:1051F000D0E019C01A96ED91FC911B97E20FF31FB6
:10520000828193811816190654F4848195819783BD
:1052100086839187808713861286D183C0836F5FD0
:105220007F4F225F3F4F6417750724F39B961C92B4
:105230001E929A97D9961C921E92D897FD01FE96BF
:10524000108211821282138282E090E053969C9326
:105250008E935297DF91CF91089524E430E0629FBE
:10526000F001639FF00D729FF00D1124E058F94F8B
:105270008289938981309105D8F08530910518F0A5
:105280000597B1F40DC08FEF9FEFAFEFBFEF828FA7
:10529000938FA48FB58F85E090E0938B828B0895D8
:1052A0008FEF9FEFAFEFBFEF828F938FA48FB58FFC
:1052B000089524E430E0429FF001439FF00D529F97
:1052C000F00D1124E058F94F9C01220F331FC90142
:1052D00043E0880F991F4A95E1F7821B930B0284E4
:1052E000F385E02DE80FF91F81E080937F0622858A
:1052F00033853187208740E050E0868197812817E9
:10530000390711F441E050E0518340830895EF9252
:10531000FF920F931F93CF93DF93EC01DA01F90112
:10532000EC80FD800A811B814D915C91119728854D
:1053300039852417350720F088819981892BB1F1AF
:105340000E0D1F1DC801841B950B2E193F09280F38
:10535000391F26173707ECF1460F571F2D913C9147
:1053600011974017510728F4718360833383228398
:1053700026C091838083338322839B01281B390BB2
:1053800035832483121613061CF080E090E002C0DF
:105390008C819D81978386838C819D812481358139
:1053A000820F931F8D939C9380E014C0241B350BB8
:1053B0002617370774F07183608353834283158205
:1053C0001482178216828D919C911197860F971FD8
:1053D000E9CF81E0DF91CF911F910F91FF90EF9086
:1053E0000895EF92FF920F931F93CF93DF937B016A
:1053F0008C01FA0184E490E0E89EE001E99ED00D82
:10540000F89ED00D1124C058D94F8A899B890097E6
:1054100009F449C00197C1F48AA59BA52A8D3B8D4B
:105420004C8D5D8D01969BA78AA70197AA2797FDB2
:10543000A095BA2F82179307A407B507A1F5C80155
:10544000B701AF010E94E0288A899B89039759F52B
:105450008AA59BA52E8D3F8D48A159A101969BA79A
:105460008AA70197AA2797FDA095BA2F82179307BD
:10547000A407B507C4F08EAD9FAD9BA78AA784E0B3
:1054800090E09B8B8A8B8AAD9BADACADBDAD181601
:1054900019061A061B063CF4FE01EE5BFF4F81E085
:1054A00090E091838083DF91CF911F910F91FF90C6
:1054B000EF90089524E430E0629FF001639FF00DC7
:1054C000729FF00D1124E058F94F8289938900975B
:1054D000C1F00497B1F482A593A5019693A782A782
:1054E000AA2797FDA095BA2F26893789408D518D1F
:1054F00082179307A407B50721F485E090E0938B0A
:10550000828B08952F923F924F925F926F927F927B
:105510008F929F92AF92BF92CF92DF92EF92FF92C3
:105520000F931F93DF93CF93CDB7DEB7CC54D0400A
:105530000FB6F894DEBF0FBECDBF27969FAF8EAFDC
:1055400027974DA75EA76FA778AB2B960CAF1DAF23
:105550002EAF3FAF2B9784E490E029962EAD3FAD60
:105560002997289F4001299F900C389F900C112467
:1055700040E856E0840E951ED4011A960D90BC9119
:10558000A02D2596BFAFAEAF2597F40182899389F0
:10559000029709F025C186A597A5A0A9B1A90097F2
:1055A000A105B10529F484E090E0938B828B18C1AA
:1055B000D40154968D919C9155972796EEADFFADF1
:1055C0002797E817F90709F00BC1D6962D913C9162
:1055D000D7973EAF2DAF1DAA1EAA1FAA18AE1CAAB0
:1055E0001BAACBC0D401D2964D905C90D397EBA967
:1055F000FCA94E0E5F1ED20112960D90BC91A02DFB
:10560000BCAFABAFB695A795B695A795BAAFA9AF06
:10561000F40180AD91AD892B09F489C0E6A0F7A013
:1056200000A511A56DAC7EACD2012D903C902196C9
:105630001FAE1EAE219771C0F40182A193A1892BE8
:1056400061F1D101AD90BD90CD90DC90C601B50166
:10565000A80197010E94824488235CF0F3016081D5
:10566000718182819381A80197010E94334387FD54
:1056700098C0C601B501A80197010E94824418167E
:1056800064F4D3016D917D918D919C91A801970156
:105690000E943343882309F484C0F40184A195A1B6
:1056A000892B61F1D101AD90BD90CD90DC90C60108
:1056B000B501A80197010E94334388235CF4F301EC
:1056C0006081718182819381A80197010E94824447
:1056D00087FF67C0C601B501A80197010E94334347
:1056E000882361F4D3016D917D918D919C91A801E6
:1056F00097010E94824418160CF453C02196EEAD17
:10570000FFAD219731962196FFAFEEAF219724E0B0
:1057100030E0620E731E220E331E21964EAD5FAD39
:10572000219789AD9AAD481759070CF485CFD2015E
:105730006C9111967C918DAD9EAD4BAD5CAD0E9490
:105740009A41E9ADFAADEE0FFF1FEE0FFF1F2DAD31
:105750003EAD2E0F3F1F3EAF2DAF8DA99EA9AFA925
:10576000B8AD0196A11DB11D8DAB9EABAFABB8AF6F
:10577000ABA9BCA91496BCABABABF40186A597A5AD
:10578000A0A9B1A92DA93EA94FA958AD281739073D
:105790004A075B070CF426CF81E090E091AF80AF21
:1057A0001FC0F401868D978DA0A1B1A10097A1051E
:1057B000B10549F484E090E0938B828B86AD97AD80
:1057C00093A782A70DC083E090E0D40153969C93E9
:1057D0008E93529781E090E09B969C938E939A973C
:1057E000F401828993898230910571F482AD93AD81
:1057F000A4ADB5AD181619061A061B060CF02FC27B
:10580000A1E02A2E312C05C0049709F028C22224D9
:10581000332427968EAD9FAD2797880F991F5C0183
:10582000E3E0AA0CBB1CEA95E1F7A81AB90A259691
:105830002EAD3FAD2597A20EB31ED50112966D91E8
:105840007C9113976115710519F480E090E0FAC11D
:10585000F501868197819A838983FE01799684E197
:10586000DF011D928A95E9F72B962CAD3DAD4EAD2B
:105870005FAD2B9729A73AA74BA75CA7211431044A
:1058800009F446C0F401FE962081318142815381A2
:10589000F40182AD93ADA4ADB5AD281739074A0721
:1058A0005B07B1F5D50114964D915C911597640F86
:1058B000751F1896ED91FC91199784819581A681A9
:1058C000B7819C018B839C83AD83BE83285F3F4F50
:1058D000E20FF31FD5011996FC93EE931897E61B80
:1058E000F70BF7FD06C04E0F5F1F19965C934E93A2
:1058F00018973C832B83F401FE9680819181A281CD
:10590000B3810197A109B10980839183A283B383F5
:10591000C50164E170E08E010F5F1F4FA8019E0179
:105920002F5E3F4F0E94872990E0009709F08AC1BF
:105930008D8D9E8DAF8DB8A10C96A11DB11D8D8F43
:105940009E8FAF8FB8A3C50164E070E0A8019E01EF
:10595000275F3F4F0E948729E82FF0E0FAABE9ABC1
:10596000EF2B09F06DC18D8D9E8DAF8DB8A1049682
:10597000A11DB11D8D8F9E8FAF8FB8A38E01035DCA
:105980001F4F49855A858B859C85B8010E949A4195
:105990006F8578896115710551F029853A85200F49
:1059A000311F4D855E85CB01B9010E949A411D8250
:1059B0001E821F82188627962EAD3FAD2797220F95
:1059C000331F23963FAF2EAF2397AE014B5F5F4F40
:1059D0002D965FAF4EAF2D97D4C0C901880F991F88
:1059E000880F991FF401A085B185A80FB91FED910B
:1059F000FC911197E081EE2309F4B8C0E33009F47B
:105A0000B5C01296ED91FC91139723962EAD3FAD44
:105A10002397E20FF31F408051804114510409F491
:105A2000A5C089A19AA1ABA1BCA10196A11DB11DE0
:105A300089A39AA3ABA3BCA3C50164E070E0AE0147
:105A40004F5F5F4F9E01275F3F4F0E94872990E085
:105A5000009709F0F7C08D8D9E8DAF8DB8A104968B
:105A6000A11DB11D8D8F9E8FAF8FB8A349855A851B
:105A70008B859C852C966FAD2C972D967FAD2D97A1
:105A80000E949A416F8578896115710571F02985A9
:105A90003A8545E050E04C0F5D1F240F351F4D85C2
:105AA0005E85CB01B9010E949A41CC24DD247601A8
:105AB0006624772450C0D20114960D911C9115973D
:105AC000060D171DF80162817381C501AE014F5F9C
:105AD0005F4F9E01275F3F4F0E94872990E000970C
